:100000000C9472000C9484000C9484000C94840072
:100010000C9484000C9484000C9484000C94840050
:100020000C9484000C9484000C9484000C94840040
:100030000C9484000C9484000C9484000C94840030
:100040000C9484000C9484000C9484000C94840020
:100050000C9484000C9484000C9484000C9486000E
:100060000C9484000C9484000C9484000C94840000
:100070000C9484000C9484000C9484000C948400F0
:100080000C9484000C9484000C9484000C948400E0
:100090000C9484000C9484000C9484000C948400D0
:1000A0000C9484000C9484000C9484000C948400C0
:1000B0000C9484000C9484000C9484000C948400B0
:1000C0000C9484000C9484000C9484000C948400A0
:1000D0000C9484000C9484000C9484000C94840090
:1000E0000C94840011241FBECFEFD1E2DEBFCDBF40
:1000F00022E0A0E0B2E001C01D92A930B207E1F712
:100100000E94D0000C9468010C9400001F920F9282
:100110000FB60F9211242F933F938F939F93AF931A
:10012000BF938091050290910602A0910702B091C1
:1001300008023091040223E0230F2D3758F5019671
:10014000A11DB11D20930402809305029093060225
:10015000A0930702B09308028091000290910102DF
:10016000A0910202B09103020196A11DB11D8093DE
:10017000000290930102A0930202B0930302BF9188
:10018000AF919F918F913F912F910F900FBE0F9044
:100190001F90189526E8230F0296A11DB11DD2CFFE
:1001A000789484B5826084BD84B5816084BD85B552
:1001B000826085BD85B5816085BD80916E0081605E
:1001C00080936E0010928100809181008260809304
:1001D0008100809181008160809381008091800006
:1001E0008160809380008091B10084608093B10031
:1001F0008091B00081608093B00080919100826016
:100200008093910080919100816080939100809112
:1002100090008160809390008091A1008260809323
:10022000A1008091A10081608093A1008091A00035
:1002300081608093A00080912101826080932101E0
:100240008091210181608093210180912001816052
:100250008093200180917A00846080937A0080915D
:100260007A00826080937A0080917A008160809326
:100270007A0080917A00806880937A001092C100A1
:100280008091010180628093010183E08093A0004E
:100290008AE18093A10080ED97E09093A90080937C
:1002A000A8008091A000877F8093A00088EE93E053
:1002B0009093AD008093AC00C0E0D0E08091A000AE
:1002C00088608093A0002097C9F30E940000F6CFB9
:0402D000F894FFCFD0
:00000001FF
